{
  "contractName": "DAO",
  "abi": [
    {
      "inputs": [
        {
          "internalType": "uint256",
          "name": "_contributionTimeEnd",
          "type": "uint256"
        },
        {
          "internalType": "uint256",
          "name": "_voteTime",
          "type": "uint256"
        },
        {
          "internalType": "uint256",
          "name": "_quorum",
          "type": "uint256"
        }
      ],
      "stateMutability": "nonpayable",
      "type": "constructor"
    },
    {
      "inputs": [],
      "name": "availableFunds",
      "outputs": [
        {
          "internalType": "uint256",
          "name": "",
          "type": "uint256"
        }
      ],
      "stateMutability": "view",
      "type": "function",
      "constant": true
    },
    {
      "inputs": [],
      "name": "contributionTimeEnd",
      "outputs": [
        {
          "internalType": "uint256",
          "name": "",
          "type": "uint256"
        }
      ],
      "stateMutability": "view",
      "type": "function",
      "constant": true
    },
    {
      "inputs": [
        {
          "internalType": "uint256",
          "name": "",
          "type": "uint256"
        }
      ],
      "name": "investorsList",
      "outputs": [
        {
          "internalType": "address",
          "name": "",
          "type": "address"
        }
      ],
      "stateMutability": "view",
      "type": "function",
      "constant": true
    },
    {
      "inputs": [
        {
          "internalType": "address",
          "name": "",
          "type": "address"
        },
        {
          "internalType": "uint256",
          "name": "",
          "type": "uint256"
        }
      ],
      "name": "isVoted",
      "outputs": [
        {
          "internalType": "bool",
          "name": "",
          "type": "bool"
        }
      ],
      "stateMutability": "view",
      "type": "function",
      "constant": true
    },
    {
      "inputs": [],
      "name": "manager",
      "outputs": [
        {
          "internalType": "address",
          "name": "",
          "type": "address"
        }
      ],
      "stateMutability": "view",
      "type": "function",
      "constant": true
    },
    {
      "inputs": [],
      "name": "nextProposalId",
      "outputs": [
        {
          "internalType": "uint256",
          "name": "",
          "type": "uint256"
        }
      ],
      "stateMutability": "view",
      "type": "function",
      "constant": true
    },
    {
      "inputs": [
        {
          "internalType": "address",
          "name": "",
          "type": "address"
        }
      ],
      "name": "numOfshares",
      "outputs": [
        {
          "internalType": "uint256",
          "name": "",
          "type": "uint256"
        }
      ],
      "stateMutability": "view",
      "type": "function",
      "constant": true
    },
    {
      "inputs": [
        {
          "internalType": "uint256",
          "name": "",
          "type": "uint256"
        }
      ],
      "name": "proposals",
      "outputs": [
        {
          "internalType": "uint256",
          "name": "id",
          "type": "uint256"
        },
        {
          "internalType": "string",
          "name": "description",
          "type": "string"
        },
        {
          "internalType": "uint256",
          "name": "amount",
          "type": "uint256"
        },
        {
          "internalType": "address payable",
          "name": "receipient",
          "type": "address"
        },
        {
          "internalType": "uint256",
          "name": "votes",
          "type": "uint256"
        },
        {
          "internalType": "uint256",
          "name": "end",
          "type": "uint256"
        },
        {
          "internalType": "bool",
          "name": "isExecuted",
          "type": "bool"
        }
      ],
      "stateMutability": "view",
      "type": "function",
      "constant": true
    },
    {
      "inputs": [],
      "name": "quorum",
      "outputs": [
        {
          "internalType": "uint256",
          "name": "",
          "type": "uint256"
        }
      ],
      "stateMutability": "view",
      "type": "function",
      "constant": true
    },
    {
      "inputs": [],
      "name": "totalShares",
      "outputs": [
        {
          "internalType": "uint256",
          "name": "",
          "type": "uint256"
        }
      ],
      "stateMutability": "view",
      "type": "function",
      "constant": true
    },
    {
      "inputs": [],
      "name": "voteTime",
      "outputs": [
        {
          "internalType": "uint256",
          "name": "",
          "type": "uint256"
        }
      ],
      "stateMutability": "view",
      "type": "function",
      "constant": true
    },
    {
      "inputs": [],
      "name": "contribution",
      "outputs": [],
      "stateMutability": "payable",
      "type": "function",
      "payable": true
    },
    {
      "inputs": [
        {
          "internalType": "uint256",
          "name": "amount",
          "type": "uint256"
        }
      ],
      "name": "reedemShare",
      "outputs": [],
      "stateMutability": "nonpayable",
      "type": "function"
    },
    {
      "inputs": [
        {
          "internalType": "address",
          "name": "to",
          "type": "address"
        }
      ],
      "name": "transferShare",
      "outputs": [],
      "stateMutability": "payable",
      "type": "function",
      "payable": true
    },
    {
      "inputs": [
        {
          "internalType": "string",
          "name": "description",
          "type": "string"
        },
        {
          "internalType": "uint256",
          "name": "amount",
          "type": "uint256"
        },
        {
          "internalType": "address payable",
          "name": "receipient",
          "type": "address"
        }
      ],
      "name": "createProposal",
      "outputs": [],
      "stateMutability": "nonpayable",
      "type": "function"
    },
    {
      "inputs": [
        {
          "internalType": "uint256",
          "name": "proposalId",
          "type": "uint256"
        }
      ],
      "name": "voteProposal",
      "outputs": [],
      "stateMutability": "nonpayable",
      "type": "function"
    },
    {
      "inputs": [
        {
          "internalType": "uint256",
          "name": "proposalId",
          "type": "uint256"
        }
      ],
      "name": "executeProposal",
      "outputs": [],
      "stateMutability": "nonpayable",
      "type": "function"
    },
    {
      "inputs": [],
      "name": "ProposalList",
      "outputs": [
        {
          "components": [
            {
              "internalType": "uint256",
              "name": "id",
              "type": "uint256"
            },
            {
              "internalType": "string",
              "name": "description",
              "type": "string"
            },
            {
              "internalType": "uint256",
              "name": "amount",
              "type": "uint256"
            },
            {
              "internalType": "address payable",
              "name": "receipient",
              "type": "address"
            },
            {
              "internalType": "uint256",
              "name": "votes",
              "type": "uint256"
            },
            {
              "internalType": "uint256",
              "name": "end",
              "type": "uint256"
            },
            {
              "internalType": "bool",
              "name": "isExecuted",
              "type": "bool"
            }
          ],
          "internalType": "struct DAO.Proposal[]",
          "name": "",
          "type": "tuple[]"
        }
      ],
      "stateMutability": "view",
      "type": "function",
      "constant": true
    },
    {
      "inputs": [],
      "name": "InvestorList",
      "outputs": [
        {
          "internalType": "address[]",
          "name": "",
          "type": "address[]"
        }
      ],
      "stateMutability": "view",
      "type": "function",
      "constant": true
    }
  ],
  "bytecode": "0x60806040523480156200001157600080fd5b506040516200291238038062002912833981810160405281019062000037919062000136565b600081118015620000485750606481105b6200008a576040517f08c379a00000000000000000000000000000000000000000000000000000000081526004016200008190620001f3565b60405180910390fd5b824262000098919062000244565b6007819055508160098190555080600a8190555033600b60006101000a81548173ffffffffffffffffffffffffffffffffffffffff021916908373ffffffffffffffffffffffffffffffffffffffff160217905550505050620002a1565b600080fd5b6000819050919050565b6200011081620000fb565b81146200011c57600080fd5b50565b600081519050620001308162000105565b92915050565b600080600060608486031215620001525762000151620000f6565b5b600062000162868287016200011f565b935050602062000175868287016200011f565b925050604062000188868287016200011f565b9150509250925092565b600082825260208201905092915050565b7f4e6f742076616c69642076616c75657300000000000000000000000000000000600082015250565b6000620001db60108362000192565b9150620001e882620001a3565b602082019050919050565b600060208201905081810360008301526200020e81620001cc565b9050919050565b7f4e487b7100000000000000000000000000000000000000000000000000000000600052601160045260246000fd5b60006200025182620000fb565b91506200025e83620000fb565b9250827fffffffffffffffffffffffffffffffffffffffffffffffffffffffffffffffff0382111562000296576200029562000215565b5b828201905092915050565b61266180620002b16000396000f3fe6080604052600436106101145760003560e01c80636ac1e01f116100a0578063afc8275b11610064578063afc8275b14610379578063bcf93dd6146103a4578063c1188cff146103cf578063df18b7f4146103f8578063e65da4291461042357610114565b80636ac1e01f146102a35780636dfc1099146102cc578063807896d5146102f75780638ee36f051461032057806392bbaa531461035d57610114565b80632ccc8727116100e75780632ccc8727146101db5780633a98ef391461021857806346fcff4c14610243578063481c6a751461026e57806350520b1f1461029957610114565b8063013cf08b146101195780630d61b5191461015c5780631703a018146101855780632ab09d14146101b0575b600080fd5b34801561012557600080fd5b50610140600480360381019061013b91906118c4565b610460565b60405161015397969594939291906119f5565b60405180910390f35b34801561016857600080fd5b50610183600480360381019061017e91906118c4565b610557565b005b34801561019157600080fd5b5061019a6106d0565b6040516101a79190611a6b565b60405180910390f35b3480156101bc57600080fd5b506101c56106d6565b6040516101d29190611a6b565b60405180910390f35b3480156101e757600080fd5b5061020260048036038101906101fd91906118c4565b6106dc565b60405161020f9190611aa7565b60405180910390f35b34801561022457600080fd5b5061022d61071b565b60405161023a9190611a6b565b60405180910390f35b34801561024f57600080fd5b50610258610721565b6040516102659190611a6b565b60405180910390f35b34801561027a57600080fd5b50610283610727565b6040516102909190611aa7565b60405180910390f35b6102a161074d565b005b3480156102af57600080fd5b506102ca60048036038101906102c59190611b53565b610951565b005b3480156102d857600080fd5b506102e1610ba8565b6040516102ee9190611d9c565b60405180910390f35b34801561030357600080fd5b5061031e600480360381019061031991906118c4565b610d93565b005b34801561032c57600080fd5b5061034760048036038101906103429190611dea565b611046565b6040516103549190611e2a565b60405180910390f35b61037760048036038101906103729190611e45565b611075565b005b34801561038557600080fd5b5061038e6113dd565b60405161039b9190611a6b565b60405180910390f35b3480156103b057600080fd5b506103b96113e3565b6040516103c69190611a6b565b60405180910390f35b3480156103db57600080fd5b506103f660048036038101906103f191906118c4565b6113e9565b005b34801561040457600080fd5b5061040d61169b565b60405161041a9190611f30565b60405180910390f35b34801561042f57600080fd5b5061044a60048036038101906104459190611e45565b611729565b6040516104579190611a6b565b60405180910390f35b600460205280600052604060002060009150905080600001549080600101805461048990611f81565b80601f01602080910402602001604051908101604052809291908181526020018280546104b590611f81565b80156105025780601f106104d757610100808354040283529160200191610502565b820191906000526020600020905b8154815290600101906020018083116104e557829003601f168201915b5050505050908060020154908060030160009054906101000a900473ffffffffffffffffffffffffffffffffffffffff16908060040154908060050154908060060160009054906101000a900460ff16905087565b3373ffffffffffffffffffffffffffffffffffffffff16600b60009054906101000a900473ffffffffffffffffffffffffffffffffffffffff1673ffffffffffffffffffffffffffffffffffffffff16146105e7576040517f08c379a00000000000000000000000000000000000000000000000000000000081526004016105de90611fff565b60405180910390fd5b6000600460008381526020019081526020016000209050600a5460055460648360040154610615919061204e565b61061f91906120d7565b1015610660576040517f08c379a000000000000000000000000000000000000000000000000000000000815260040161065790612154565b60405180910390fd5b60018160060160006101000a81548160ff0219169083151502179055508060020154600660008282546106939190612174565b925050819055506106cc81600201548260030160009054906101000a900473ffffffffffffffffffffffffffffffffffffffff16611741565b5050565b600a5481565b60085481565b600381815481106106ec57600080fd5b906000526020600020016000915054906101000a900473ffffffffffffffffffffffffffffffffffffffff1681565b60055481565b60065481565b600b60009054906101000a900473ffffffffffffffffffffffffffffffffffffffff1681565b426007541015610792576040517f08c379a0000000000000000000000000000000000000000000000000000000008152600401610789906121f4565b60405180910390fd5b600034116107d5576040517f08c379a00000000000000000000000000000000000000000000000000000000081526004016107cc90612260565b60405180910390fd5b60016000803373ffffffffffffffffffffffffffffffffffffffff1673ffffffffffffffffffffffffffffffffffffffff16815260200190815260200160002060006101000a81548160ff02191690831515021790555034600160003373ffffffffffffffffffffffffffffffffffffffff1673ffffffffffffffffffffffffffffffffffffffff168152602001908152602001600020546108779190612280565b600160003373ffffffffffffffffffffffffffffffffffffffff1673ffffffffffffffffffffffffffffffffffffffff1681526020019081526020016000208190555034600560008282546108cc9190612280565b9250508190555034600660008282546108e59190612280565b925050819055506003339080600181540180825580915050600190039060005260206000200160009091909190916101000a81548173ffffffffffffffffffffffffffffffffffffffff021916908373ffffffffffffffffffffffffffffffffffffffff160217905550565b3373ffffffffffffffffffffffffffffffffffffffff16600b60009054906101000a900473ffffffffffffffffffffffffffffffffffffffff1673ffffffffffffffffffffffffffffffffffffffff16146109e1576040517f08c379a00000000000000000000000000000000000000000000000000000000081526004016109d890611fff565b60405180910390fd5b816006541015610a26576040517f08c379a0000000000000000000000000000000000000000000000000000000008152600401610a1d90612322565b60405180910390fd5b6040518060e00160405280600854815260200185858080601f016020809104026020016040519081016040528093929190818152602001838380828437600081840152601f19601f8201169050808301925050505050505081526020018381526020018273ffffffffffffffffffffffffffffffffffffffff1681526020016000815260200160095442610aba9190612280565b815260200160001515815250600460006008548152602001908152602001600020600082015181600001556020820151816001019080519060200190610b0192919061178c565b506040820151816002015560608201518160030160006101000a81548173ffffffffffffffffffffffffffffffffffffffff021916908373ffffffffffffffffffffffffffffffffffffffff1602179055506080820151816004015560a0820151816005015560c08201518160060160006101000a81548160ff02191690831515021790555090505060086000815480929190610b9d90612342565b919050555050505050565b6060600060085467ffffffffffffffff811115610bc857610bc761238b565b5b604051908082528060200260200182016040528015610c0157816020015b610bee611812565b815260200190600190039081610be65790505b50905060005b600854811015610d8b57600460008281526020019081526020016000206040518060e001604052908160008201548152602001600182018054610c4990611f81565b80601f0160208091040260200160405190810160405280929190818152602001828054610c7590611f81565b8015610cc25780601f10610c9757610100808354040283529160200191610cc2565b820191906000526020600020905b815481529060010190602001808311610ca557829003601f168201915b50505050508152602001600282015481526020016003820160009054906101000a900473ffffffffffffffffffffffffffffffffffffffff1673ffffffffffffffffffffffffffffffffffffffff1673ffffffffffffffffffffffffffffffffffffffff16815260200160048201548152602001600582015481526020016006820160009054906101000a900460ff161515151581525050828281518110610d6d57610d6c6123ba565b5b60200260200101819052508080610d8390612342565b915050610c07565b508091505090565b600115156000803373ffffffffffffffffffffffffffffffffffffffff1673ffffffffffffffffffffffffffffffffffffffff16815260200190815260200160002060009054906101000a900460ff16151514610e25576040517f08c379a0000000000000000000000000000000000000000000000000000000008152600401610e1c90612435565b60405180910390fd5b600060046000838152602001908152602001600020905060001515600260003373ffffffffffffffffffffffffffffffffffffffff1673ffffffffffffffffffffffffffffffffffffffff168152602001908152602001600020600084815260200190815260200160002060009054906101000a900460ff16151514610ee0576040517f08c379a0000000000000000000000000000000000000000000000000000000008152600401610ed7906124c7565b60405180910390fd5b4281600501541015610f27576040517f08c379a0000000000000000000000000000000000000000000000000000000008152600401610f1e90612533565b60405180910390fd5b600015158160060160009054906101000a900460ff16151514610f7f576040517f08c379a0000000000000000000000000000000000000000000000000000000008152600401610f769061259f565b60405180910390fd5b6001600260003373ffffffffffffffffffffffffffffffffffffffff1673ffffffffffffffffffffffffffffffffffffffff168152602001908152602001600020600084815260200190815260200160002060006101000a81548160ff021916908315150217905550600160003373ffffffffffffffffffffffffffffffffffffffff1673ffffffffffffffffffffffffffffffffffffffff1681526020019081526020016000205481600401600082825461103b9190612280565b925050819055505050565b60026020528160005260406000206020528060005260406000206000915091509054906101000a900460ff1681565b600115156000803373ffffffffffffffffffffffffffffffffffffffff1673ffffffffffffffffffffffffffffffffffffffff16815260200190815260200160002060009054906101000a900460ff16151514611107576040517f08c379a00000000000000000000000000000000000000000000000000000000081526004016110fe90612435565b60405180910390fd5b6000349050806006541015611151576040517f08c379a000000000000000000000000000000000000000000000000000000000815260040161114890612322565b60405180910390fd5b80600160003373ffffffffffffffffffffffffffffffffffffffff1673ffffffffffffffffffffffffffffffffffffffff1681526020019081526020016000205410156111d3576040517f08c379a00000000000000000000000000000000000000000000000000000000081526004016111ca9061260b565b60405180910390fd5b80600160003373ffffffffffffffffffffffffffffffffffffffff1673ffffffffffffffffffffffffffffffffffffffff16815260200190815260200160002060008282546112229190612174565b925050819055506000600160003373ffffffffffffffffffffffffffffffffffffffff1673ffffffffffffffffffffffffffffffffffffffff1681526020019081526020016000205414156112c95760008060003373ffffffffffffffffffffffffffffffffffffffff1673ffffffffffffffffffffffffffffffffffffffff16815260200190815260200160002060006101000a81548160ff0219169083151502179055505b80600160008473ffffffffffffffffffffffffffffffffffffffff1673ffffffffffffffffffffffffffffffffffffffff16815260200190815260200160002060008282546113189190612280565b9250508190555060016000808473ffffffffffffffffffffffffffffffffffffffff1673ffffffffffffffffffffffffffffffffffffffff16815260200190815260200160002060006101000a81548160ff0219169083151502179055506003829080600181540180825580915050600190039060005260206000200160009091909190916101000a81548173ffffffffffffffffffffffffffffffffffffffff021916908373ffffffffffffffffffffffffffffffffffffffff1602179055505050565b60075481565b60095481565b600115156000803373ffffffffffffffffffffffffffffffffffffffff1673ffffffffffffffffffffffffffffffffffffffff16815260200190815260200160002060009054906101000a900460ff1615151461147b576040517f08c379a000000000000000000000000000000000000000000000000000000000815260040161147290612435565b60405180910390fd5b80600160003373ffffffffffffffffffffffffffffffffffffffff1673ffffffffffffffffffffffffffffffffffffffff1681526020019081526020016000205410156114fd576040517f08c379a00000000000000000000000000000000000000000000000000000000081526004016114f49061260b565b60405180910390fd5b806006541015611542576040517f08c379a000000000000000000000000000000000000000000000000000000000815260040161153990612322565b60405180910390fd5b80600160003373ffffffffffffffffffffffffffffffffffffffff1673ffffffffffffffffffffffffffffffffffffffff16815260200190815260200160002060008282546115919190612174565b925050819055506000600160003373ffffffffffffffffffffffffffffffffffffffff1673ffffffffffffffffffffffffffffffffffffffff1681526020019081526020016000205414156116385760008060003373ffffffffffffffffffffffffffffffffffffffff1673ffffffffffffffffffffffffffffffffffffffff16815260200190815260200160002060006101000a81548160ff0219169083151502179055505b806006600082825461164a9190612174565b925050819055503373ffffffffffffffffffffffffffffffffffffffff166108fc829081150290604051600060405180830381858888f19350505050158015611697573d6000803e3d6000fd5b5050565b6060600380548060200260200160405190810160405280929190818152602001828054801561171f57602002820191906000526020600020905b8160009054906101000a900473ffffffffffffffffffffffffffffffffffffffff1673ffffffffffffffffffffffffffffffffffffffff16815260200190600101908083116116d5575b5050505050905090565b60016020528060005260406000206000915090505481565b8073ffffffffffffffffffffffffffffffffffffffff166108fc839081150290604051600060405180830381858888f19350505050158015611787573d6000803e3d6000fd5b505050565b82805461179890611f81565b90600052602060002090601f0160209004810192826117ba5760008555611801565b82601f106117d357805160ff1916838001178555611801565b82800160010185558215611801579182015b828111156118005782518255916020019190600101906117e5565b5b50905061180e9190611867565b5090565b6040518060e00160405280600081526020016060815260200160008152602001600073ffffffffffffffffffffffffffffffffffffffff16815260200160008152602001600081526020016000151581525090565b5b80821115611880576000816000905550600101611868565b5090565b600080fd5b600080fd5b6000819050919050565b6118a18161188e565b81146118ac57600080fd5b50565b6000813590506118be81611898565b92915050565b6000602082840312156118da576118d9611884565b5b60006118e8848285016118af565b91505092915050565b6118fa8161188e565b82525050565b600081519050919050565b600082825260208201905092915050565b60005b8381101561193a57808201518184015260208101905061191f565b83811115611949576000848401525b50505050565b6000601f19601f8301169050919050565b600061196b82611900565b611975818561190b565b935061198581856020860161191c565b61198e8161194f565b840191505092915050565b600073ffffffffffffffffffffffffffffffffffffffff82169050919050565b60006119c482611999565b9050919050565b6119d4816119b9565b82525050565b60008115159050919050565b6119ef816119da565b82525050565b600060e082019050611a0a600083018a6118f1565b8181036020830152611a1c8189611960565b9050611a2b60408301886118f1565b611a3860608301876119cb565b611a4560808301866118f1565b611a5260a08301856118f1565b611a5f60c08301846119e6565b98975050505050505050565b6000602082019050611a8060008301846118f1565b92915050565b6000611a9182611999565b9050919050565b611aa181611a86565b82525050565b6000602082019050611abc6000830184611a98565b92915050565b600080fd5b600080fd5b600080fd5b60008083601f840112611ae757611ae6611ac2565b5b8235905067ffffffffffffffff811115611b0457611b03611ac7565b5b602083019150836001820283011115611b2057611b1f611acc565b5b9250929050565b611b30816119b9565b8114611b3b57600080fd5b50565b600081359050611b4d81611b27565b92915050565b60008060008060608587031215611b6d57611b6c611884565b5b600085013567ffffffffffffffff811115611b8b57611b8a611889565b5b611b9787828801611ad1565b94509450506020611baa878288016118af565b9250506040611bbb87828801611b3e565b91505092959194509250565b600081519050919050565b600082825260208201905092915050565b6000819050602082019050919050565b611bfc8161188e565b82525050565b600082825260208201905092915050565b6000611c1e82611900565b611c288185611c02565b9350611c3881856020860161191c565b611c418161194f565b840191505092915050565b611c55816119b9565b82525050565b611c64816119da565b82525050565b600060e083016000830151611c826000860182611bf3565b5060208301518482036020860152611c9a8282611c13565b9150506040830151611caf6040860182611bf3565b506060830151611cc26060860182611c4c565b506080830151611cd56080860182611bf3565b5060a0830151611ce860a0860182611bf3565b5060c0830151611cfb60c0860182611c5b565b508091505092915050565b6000611d128383611c6a565b905092915050565b6000602082019050919050565b6000611d3282611bc7565b611d3c8185611bd2565b935083602082028501611d4e85611be3565b8060005b85811015611d8a5784840389528151611d6b8582611d06565b9450611d7683611d1a565b925060208a01995050600181019050611d52565b50829750879550505050505092915050565b60006020820190508181036000830152611db68184611d27565b905092915050565b611dc781611a86565b8114611dd257600080fd5b50565b600081359050611de481611dbe565b92915050565b60008060408385031215611e0157611e00611884565b5b6000611e0f85828601611dd5565b9250506020611e20858286016118af565b9150509250929050565b6000602082019050611e3f60008301846119e6565b92915050565b600060208284031215611e5b57611e5a611884565b5b6000611e6984828501611dd5565b91505092915050565b600081519050919050565b600082825260208201905092915050565b6000819050602082019050919050565b611ea781611a86565b82525050565b6000611eb98383611e9e565b60208301905092915050565b6000602082019050919050565b6000611edd82611e72565b611ee78185611e7d565b9350611ef283611e8e565b8060005b83811015611f23578151611f0a8882611ead565b9750611f1583611ec5565b925050600181019050611ef6565b5085935050505092915050565b60006020820190508181036000830152611f4a8184611ed2565b905092915050565b7f4e487b7100000000000000000000000000000000000000000000000000000000600052602260045260246000fd5b60006002820490506001821680611f9957607f821691505b60208210811415611fad57611fac611f52565b5b50919050565b7f596f7520617265206e6f742061206d616e616765720000000000000000000000600082015250565b6000611fe960158361190b565b9150611ff482611fb3565b602082019050919050565b6000602082019050818103600083015261201881611fdc565b9050919050565b7f4e487b7100000000000000000000000000000000000000000000000000000000600052601160045260246000fd5b60006120598261188e565b91506120648361188e565b9250817fffffffffffffffffffffffffffffffffffffffffffffffffffffffffffffffff048311821515161561209d5761209c61201f565b5b828202905092915050565b7f4e487b7100000000000000000000000000000000000000000000000000000000600052601260045260246000fd5b60006120e28261188e565b91506120ed8361188e565b9250826120fd576120fc6120a8565b5b828204905092915050565b7f4d616a6f7269747920646f6573206e6f7420737570706f727400000000000000600082015250565b600061213e60198361190b565b915061214982612108565b602082019050919050565b6000602082019050818103600083015261216d81612131565b9050919050565b600061217f8261188e565b915061218a8361188e565b92508282101561219d5761219c61201f565b5b828203905092915050565b7f436f6e747269627574696f6e2054696d6520456e646564000000000000000000600082015250565b60006121de60178361190b565b91506121e9826121a8565b602082019050919050565b6000602082019050818103600083015261220d816121d1565b9050919050565b7f53656e64206d6f7265207468616e203020657468657200000000000000000000600082015250565b600061224a60168361190b565b915061225582612214565b602082019050919050565b600060208201905081810360008301526122798161223d565b9050919050565b600061228b8261188e565b91506122968361188e565b9250827fffffffffffffffffffffffffffffffffffffffffffffffffffffffffffffffff038211156122cb576122ca61201f565b5b828201905092915050565b7f4e6f7420656e6f7567682066756e647300000000000000000000000000000000600082015250565b600061230c60108361190b565b9150612317826122d6565b602082019050919050565b6000602082019050818103600083015261233b816122ff565b9050919050565b600061234d8261188e565b91507fffffffffffffffffffffffffffffffffffffffffffffffffffffffffffffffff8214156123805761237f61201f565b5b600182019050919050565b7f4e487b7100000000000000000000000000000000000000000000000000000000600052604160045260246000fd5b7f4e487b7100000000000000000000000000000000000000000000000000000000600052603260045260246000fd5b7f596f7520617265206e6f7420616e20696e766573746f72000000000000000000600082015250565b600061241f60178361190b565b915061242a826123e9565b602082019050919050565b6000602082019050818103600083015261244e81612412565b9050919050565b7f596f75206861766520616c726561647920766f74656420666f7220746869732060008201527f70726f706f73616c000000000000000000000000000000000000000000000000602082015250565b60006124b160288361190b565b91506124bc82612455565b604082019050919050565b600060208201905081810360008301526124e0816124a4565b9050919050565b7f566f74696e672054696d6520456e646564000000000000000000000000000000600082015250565b600061251d60118361190b565b9150612528826124e7565b602082019050919050565b6000602082019050818103600083015261254c81612510565b9050919050565b7f497420697320616c726561647920657865637574656400000000000000000000600082015250565b600061258960168361190b565b915061259482612553565b602082019050919050565b600060208201905081810360008301526125b88161257c565b9050919050565b7f596f7520646f6e2774206861766520656e6f7567682073686172657300000000600082015250565b60006125f5601c8361190b565b9150612600826125bf565b602082019050919050565b60006020820190508181036000830152612624816125e8565b905091905056fea2646970667358221220bff3e371b12ef53b97e7487c2d75eea3d86f13fe9137330c86e1ec1dcb4be77f64736f6c634300080b0033",
  "immutableReferences": {},
  "source": "// SPDX-License-Identifier: GPL-3.0\r\n\r\npragma solidity >=0.7.0 <0.9.0;\r\n\r\ncontract DAO {\r\nstruct Proposal{\r\n                  uint id;\r\n                  string description;\r\n                  uint amount;\r\n                  address payable receipient;\r\n                  uint votes;\r\n                  uint end;\r\n                  bool isExecuted;\r\n                }\r\n\r\nmapping(address=>bool) private isInvestor;\r\nmapping(address=>uint) public numOfshares;\r\nmapping(address=>mapping(uint=>bool)) public isVoted;\r\naddress[] public investorsList;\r\nmapping(uint=>Proposal) public proposals;\r\nuint public totalShares;\r\nuint public availableFunds;\r\nuint public contributionTimeEnd;\r\nuint public nextProposalId;\r\nuint public voteTime;\r\nuint public quorum;\r\naddress public manager;\r\n\r\n//value passed using truffle migration file\r\nconstructor(uint _contributionTimeEnd,uint _voteTime,uint _quorum){\r\n          require(_quorum>0 && _quorum<100,\"Not valid values\");\r\n          contributionTimeEnd=block.timestamp+_contributionTimeEnd; //16342343342 + 2*3600\r\n          voteTime=_voteTime;\r\n          quorum=_quorum;\r\n          manager=msg.sender;\r\n}\r\n\r\nmodifier onlyInvestor(){\r\n      require(isInvestor[msg.sender]==true,\"You are not an investor\");\r\n      _;\r\n}\r\nmodifier onlyManager(){\r\n      require(manager==msg.sender,\"You are not a manager\");\r\n      _;\r\n}\r\n\r\n\r\n\r\nfunction contribution() public payable{\r\n      require(contributionTimeEnd>=block.timestamp,\"Contribution Time Ended\");//5 PM , //16342343342 + 2*3600 > 16342340000\r\n      require(msg.value>0,\"Send more than 0 ether\");\r\n      isInvestor[msg.sender]=true;\r\n      numOfshares[msg.sender]=numOfshares[msg.sender]+msg.value;\r\n      totalShares+=msg.value; //totaltShares=totalShares+msg.value\r\n      availableFunds+=msg.value;\r\n      investorsList.push(msg.sender);\r\n}\r\n\r\nfunction reedemShare(uint amount) public onlyInvestor(){\r\n      require(numOfshares[msg.sender]>=amount,\"You don't have enough shares\");\r\n      require(availableFunds>=amount,\"Not enough funds\");\r\n      numOfshares[msg.sender]-=amount;\r\n      if(numOfshares[msg.sender]==0){\r\n          isInvestor[msg.sender]=false;\r\n      }\r\n      availableFunds-=amount;\r\n      payable(msg.sender).transfer(amount);//transferring of ether\r\n}\r\n\r\n//investor's address share will get transfered \"to\" address\r\n\r\nfunction transferShare(address to) public payable onlyInvestor(){\r\n      uint  amount = msg.value;\r\n      require(availableFunds>=amount,\"Not enough funds\");\r\n      require(numOfshares[msg.sender]>=amount,\"You don't have enough shares\");\r\n      numOfshares[msg.sender]-=amount;\r\n      if(numOfshares[msg.sender]==0){\r\n          isInvestor[msg.sender]=false;\r\n      }\r\n      numOfshares[to]+=amount;\r\n      isInvestor[to]=true;\r\n      investorsList.push(to);\r\n}\r\n\r\n\r\n\r\nfunction createProposal(string calldata description,uint amount,address payable receipient) public onlyManager{\r\n      require(availableFunds>=amount,\"Not enough funds\");\r\n      proposals[nextProposalId]=Proposal(nextProposalId,description,\r\n      amount,receipient,0,block.timestamp+voteTime,false);\r\n      nextProposalId++;\r\n}\r\n\r\n\r\n\r\nfunction voteProposal(uint proposalId) public onlyInvestor(){\r\n      Proposal storage proposal = proposals[proposalId];\r\n      require(isVoted[msg.sender][proposalId]==false,\"You have already voted for this proposal\");\r\n      require(proposal.end>=block.timestamp,\"Voting Time Ended\");\r\n      require(proposal.isExecuted==false,\"It is already executed\");\r\n      isVoted[msg.sender][proposalId]=true;\r\n      proposal.votes+=numOfshares[msg.sender];//proposal.votes=proposal.votes+numOfshares[msg.sender]\r\n}\r\n\r\n\r\nfunction executeProposal(uint proposalId) public onlyManager(){\r\n      Proposal storage proposal=proposals[proposalId];\r\n      require(((proposal.votes*100)/totalShares)>=quorum,\"Majority does not support\");\r\n      proposal.isExecuted=true;\r\n      availableFunds-=proposal.amount;\r\n      _transfer(proposal.amount,proposal.receipient);\r\n}\r\n\r\nfunction _transfer(uint amount,address payable receipient) private{\r\n      receipient.transfer(amount);\r\n}\r\n\r\n\r\nfunction ProposalList() public view returns(Proposal[] memory){\r\n    Proposal[] memory arr = new Proposal[](nextProposalId);//empty array of length=nextProposalId-1\r\n    for(uint i=0;i<nextProposalId;i++){\r\n        arr[i]=proposals[i];\r\n    }\r\n    return arr;\r\n}\r\n\r\nfunction InvestorList() public view returns(address[] memory){\r\n  return investorsList;\r\n}\r\n}\r\n\r\n",
  "sourcePath": "C:\\Users\\bhask\\projects\\DAO_DApp\\contracts\\dao.sol",
  "compiler": {
    "name": "solc",
    "version": "0.8.11+commit.d7f03943.Emscripten.clang"
  },
  "schemaVersion": "3.4.16",
  "updatedAt": "2024-01-30T10:52:18.495Z",
  "networkType": "ethereum",
  "devdoc": {
    "kind": "dev",
    "methods": {},
    "version": 1
  },
  "userdoc": {
    "kind": "user",
    "methods": {},
    "version": 1
  }
}